{
  "address": "0x16bb2CEc0B286ceECca3aE195e378FDe264b43b4",
  "abi": [
    {
      "inputs": [
        {
          "internalType": "address",
          "name": "_comptroller",
          "type": "address"
        }
      ],
      "stateMutability": "nonpayable",
      "type": "constructor"
    },
    {
      "inputs": [],
      "name": "EmptyBatch",
      "type": "error"
    },
    {
      "inputs": [],
      "name": "ZeroAddress",
      "type": "error"
    },
    {
      "anonymous": false,
      "inputs": [
        {
          "indexed": false,
          "internalType": "uint256",
          "name": "count",
          "type": "uint256"
        }
      ],
      "name": "BorrowAllowedBatchExecuted",
      "type": "event"
    },
    {
      "anonymous": false,
      "inputs": [
        {
          "indexed": false,
          "internalType": "uint256",
          "name": "count",
          "type": "uint256"
        }
      ],
      "name": "CollateralFactorBatchExecuted",
      "type": "event"
    },
    {
      "anonymous": false,
      "inputs": [
        {
          "indexed": false,
          "internalType": "uint256",
          "name": "count",
          "type": "uint256"
        }
      ],
      "name": "LiquidationIncentiveBatchExecuted",
      "type": "event"
    },
    {
      "inputs": [],
      "name": "COMPTROLLER",
      "outputs": [
        {
          "internalType": "contract IComptroller",
          "name": "",
          "type": "address"
        }
      ],
      "stateMutability": "view",
      "type": "function"
    },
    {
      "inputs": [
        {
          "components": [
            {
              "internalType": "uint96",
              "name": "poolId",
              "type": "uint96"
            },
            {
              "internalType": "address",
              "name": "vToken",
              "type": "address"
            },
            {
              "internalType": "bool",
              "name": "borrowAllowed",
              "type": "bool"
            }
          ],
          "internalType": "struct MarketConfigurationAggregator.BorrowAllowedParams[]",
          "name": "updates",
          "type": "tuple[]"
        }
      ],
      "name": "executeBorrowAllowedBatch",
      "outputs": [],
      "stateMutability": "nonpayable",
      "type": "function"
    },
    {
      "inputs": [
        {
          "components": [
            {
              "internalType": "contract IVToken",
              "name": "vToken",
              "type": "address"
            },
            {
              "internalType": "uint256",
              "name": "newCollateralFactorMantissa",
              "type": "uint256"
            },
            {
              "internalType": "uint256",
              "name": "newLiquidationThresholdMantissa",
              "type": "uint256"
            }
          ],
          "internalType": "struct MarketConfigurationAggregator.CollateralFactorParams[]",
          "name": "updates",
          "type": "tuple[]"
        }
      ],
      "name": "executeCollateralFactorBatch",
      "outputs": [],
      "stateMutability": "nonpayable",
      "type": "function"
    },
    {
      "inputs": [
        {
          "components": [
            {
              "internalType": "address",
              "name": "vToken",
              "type": "address"
            },
            {
              "internalType": "uint256",
              "name": "newLiquidationIncentiveMantissa",
              "type": "uint256"
            }
          ],
          "internalType": "struct MarketConfigurationAggregator.LiquidationIncentiveParams[]",
          "name": "updates",
          "type": "tuple[]"
        }
      ],
      "name": "executeLiquidationIncentiveBatch",
      "outputs": [],
      "stateMutability": "nonpayable",
      "type": "function"
    }
  ],
  "transactionHash": "0xb51c48671f9de8111c0571f37b81892c698227386db83eaf7ffc4beedf2cac1b",
  "args": [
    "0xfD36E2c2a6789Db23113685031d7F16329158384"
  ],
  "numDeployments": 1,
  "solcInputHash": "289329b834c25fddd51c648ed66afe3f",
  "bytecode": "0x60a0604052348015600e575f80fd5b50604051610893380380610893833981016040819052602b916061565b6001600160a01b03811660515760405163d92e233d60e01b815260040160405180910390fd5b6001600160a01b0316608052608c565b5f602082840312156070575f80fd5b81516001600160a01b03811681146085575f80fd5b9392505050565b6080516107db6100b85f395f818160530152818161016101528181610283015261037601526107db5ff3fe608060405234801561000f575f80fd5b506004361061004a575f3560e01c80635f82c67e1461004e57806364cecfed1461009157806371b28ba2146100a65780638bacc939146100b9575b5f80fd5b6100757f000000000000000000000000000000000000000000000000000000000000000081565b6040516001600160a01b03909116815260200160405180910390f35b6100a461009f366004610523565b6100cc565b005b6100a46100b436600461060e565b6101fd565b6100a46100c73660046106c2565b61032a565b80515f8190036100ef5760405163c2e5347d60e01b815260040160405180910390fd5b5f5b818110156101c4575f83828151811061010c5761010c61077a565b602090810291909101810151805191810151604080830151905163a89766dd60e01b81526bffffffffffffffffffffffff90941660048501526001600160a01b039182166024850152151560448401529092507f0000000000000000000000000000000000000000000000000000000000000000169063a89766dd906064015f604051808303815f87803b1580156101a2575f80fd5b505af11580156101b4573d5f803e3d5ffd5b50505050508060010190506100f1565b506040518181527f0d69d816c6b9e87f0f10907a0537f84c961f76e3d36865f087f4667afacb59dc906020015b60405180910390a15050565b80515f8190036102205760405163c2e5347d60e01b815260040160405180910390fd5b5f5b818110156102f9575f83828151811061023d5761023d61077a565b6020908102919091018101518051918101516040808301519051635cc4fdeb60e01b81526001600160a01b039485166004820152602481019290925260448201529092507f000000000000000000000000000000000000000000000000000000000000000090911690635cc4fdeb906064016020604051808303815f875af11580156102cb573d5f803e3d5ffd5b505050506040513d601f19601f820116820180604052508101906102ef919061078e565b5050600101610222565b506040518181527fb2e60f0e7c07dff4ee2867a99c2f0a2807bc978a7f875a190fa0a64a61b8d20b906020016101f1565b80515f81900361034d5760405163c2e5347d60e01b815260040160405180910390fd5b5f5b81811015610427575f83828151811061036a5761036a61077a565b602002602001015190507f00000000000000000000000000000000000000000000000000000000000000006001600160a01b0316639bd8f6e8825f015183602001516040518363ffffffff1660e01b81526004016103dd9291906001600160a01b03929092168252602082015260400190565b6020604051808303815f875af11580156103f9573d5f803e3d5ffd5b505050506040513d601f19601f8201168201806040525081019061041d919061078e565b505060010161034f565b506040518181527f3f9ae5446ee6b85407de44c3385f2fb90c628f28d1ee1bd55c0ab912cf056de9906020016101f1565b634e487b7160e01b5f52604160045260245ffd5b6040516060810167ffffffffffffffff8111828210171561048f5761048f610458565b60405290565b6040805190810167ffffffffffffffff8111828210171561048f5761048f610458565b604051601f8201601f1916810167ffffffffffffffff811182821017156104e1576104e1610458565b604052919050565b5f67ffffffffffffffff82111561050257610502610458565b5060051b60200190565b6001600160a01b0381168114610520575f80fd5b50565b5f6020808385031215610534575f80fd5b823567ffffffffffffffff81111561054a575f80fd5b8301601f8101851361055a575f80fd5b803561056d610568826104e9565b6104b8565b8181526060918202830184019184820191908884111561058b575f80fd5b938501935b838510156106025780858a0312156105a6575f80fd5b6105ae61046c565b85356bffffffffffffffffffffffff811681146105c9575f80fd5b8152858701356105d88161050c565b8188015260408681013580151581146105ef575f80fd5b9082015283529384019391850191610590565b50979650505050505050565b5f602080838503121561061f575f80fd5b823567ffffffffffffffff811115610635575f80fd5b8301601f81018513610645575f80fd5b8035610653610568826104e9565b81815260609182028301840191848201919088841115610671575f80fd5b938501935b838510156106025780858a03121561068c575f80fd5b61069461046c565b853561069f8161050c565b815285870135878201526040808701359082015283529384019391850191610676565b5f60208083850312156106d3575f80fd5b823567ffffffffffffffff8111156106e9575f80fd5b8301601f810185136106f9575f80fd5b8035610707610568826104e9565b81815260069190911b82018301908381019087831115610725575f80fd5b928401925b8284101561076f5760408489031215610741575f80fd5b610749610495565b84356107548161050c565b8152848601358682015282526040909301929084019061072a565b979650505050505050565b634e487b7160e01b5f52603260045260245ffd5b5f6020828403121561079e575f80fd5b505191905056fea2646970667358221220869df28809bc63835dd2aad09de46decf8b888f08b83df7a48f99fe7f0583f1f64736f6c63430008190033",
  "devdoc": {
    "author": "Venus",
    "events": {
      "BorrowAllowedBatchExecuted(uint256)": {
        "params": {
          "count": "The number of updates executed in this batch"
        }
      },
      "CollateralFactorBatchExecuted(uint256)": {
        "params": {
          "count": "The number of updates executed in this batch"
        }
      },
      "LiquidationIncentiveBatchExecuted(uint256)": {
        "params": {
          "count": "The number of updates executed in this batch"
        }
      }
    },
    "kind": "dev",
    "methods": {
      "constructor": {
        "custom:error": "Reverts with ZeroAddress if the provided `_comptroller` is the zero address",
        "params": {
          "_comptroller": "Address of the comptroller"
        }
      },
      "executeBorrowAllowedBatch((uint96,address,bool)[])": {
        "custom:error": "Reverts with EmptyBatch if the updates array is empty",
        "custom:event": "Emits BorrowAllowedBatchExecuted",
        "params": {
          "updates": "Array of borrow allowed parameters"
        }
      },
      "executeCollateralFactorBatch((address,uint256,uint256)[])": {
        "custom:error": "Reverts with EmptyBatch if the updates array is empty",
        "custom:event": "Emits CollateralFactorBatchExecuted",
        "params": {
          "updates": "Array of collateral factor parameters"
        }
      },
      "executeLiquidationIncentiveBatch((address,uint256)[])": {
        "custom:error": "Reverts with EmptyBatch if the updates array is empty",
        "custom:event": "Emits LiquidationIncentiveBatchExecuted",
        "params": {
          "updates": "Array of liquidation incentive parameters"
        }
      }
    },
    "title": "MarketConfigurationAggregator",
    "version": 1
  },
  "userdoc": {
    "errors": {
      "EmptyBatch()": [
        {
          "notice": "Error thrown when attempting to execute a batch with zero updates"
        }
      ],
      "ZeroAddress()": [
        {
          "notice": "Error thrown when an zero address is provided"
        }
      ]
    },
    "events": {
      "BorrowAllowedBatchExecuted(uint256)": {
        "notice": "Emitted after a batch of borrow allowed updates is executed"
      },
      "CollateralFactorBatchExecuted(uint256)": {
        "notice": "Emitted after a batch of collateral factor updates is executed"
      },
      "LiquidationIncentiveBatchExecuted(uint256)": {
        "notice": "Emitted after a batch of liquidation incentive updates is executed"
      }
    },
    "kind": "user",
    "methods": {
      "COMPTROLLER()": {
        "notice": "The Comptroller contract"
      },
      "constructor": {
        "notice": "Constructor to initialize the MarketConfigurationAggregator with the comptroller"
      },
      "executeBorrowAllowedBatch((uint96,address,bool)[])": {
        "notice": "Execute a batch of borrow allowed updates"
      },
      "executeCollateralFactorBatch((address,uint256,uint256)[])": {
        "notice": "Execute a batch of collateral factor updates"
      },
      "executeLiquidationIncentiveBatch((address,uint256)[])": {
        "notice": "Execute a batch of liquidation incentive updates"
      }
    },
    "notice": "Executes batches of market configuration updates.",
    "version": 1
  },
  "storageLayout": {
    "storage": [],
    "types": null
  }
}