{
  "address": "0x9274C513C2E255586DBD74C11D60837e5bF8F502",
  "abi": [
    {
      "inputs": [
        {
          "internalType": "contract IComptroller",
          "name": "_comptroller",
          "type": "address"
        },
        {
          "internalType": "contract SwapHelper",
          "name": "_swapHelper",
          "type": "address"
        },
        {
          "internalType": "contract IWBNB",
          "name": "_wrappedNative",
          "type": "address"
        },
        {
          "internalType": "address",
          "name": "_nativeVToken",
          "type": "address"
        }
      ],
      "stateMutability": "nonpayable",
      "type": "constructor"
    },
    {
      "inputs": [
        {
          "internalType": "uint256",
          "name": "amountOut",
          "type": "uint256"
        },
        {
          "internalType": "uint256",
          "name": "minAmountOut",
          "type": "uint256"
        }
      ],
      "name": "InsufficientAmountOut",
      "type": "error"
    },
    {
      "inputs": [],
      "name": "InsufficientBalance",
      "type": "error"
    },
    {
      "inputs": [
        {
          "internalType": "address",
          "name": "vToken",
          "type": "address"
        }
      ],
      "name": "MarketNotListed",
      "type": "error"
    },
    {
      "inputs": [],
      "name": "NativeTransferFailed",
      "type": "error"
    },
    {
      "inputs": [],
      "name": "NoTokensReceived",
      "type": "error"
    },
    {
      "inputs": [
        {
          "internalType": "uint256",
          "name": "errorCode",
          "type": "uint256"
        }
      ],
      "name": "RepayFailed",
      "type": "error"
    },
    {
      "inputs": [
        {
          "internalType": "uint256",
          "name": "errorCode",
          "type": "uint256"
        }
      ],
      "name": "SupplyFailed",
      "type": "error"
    },
    {
      "inputs": [],
      "name": "SwapFailed",
      "type": "error"
    },
    {
      "inputs": [
        {
          "internalType": "address",
          "name": "sender",
          "type": "address"
        }
      ],
      "name": "UnauthorizedNativeSender",
      "type": "error"
    },
    {
      "inputs": [],
      "name": "ZeroAddress",
      "type": "error"
    },
    {
      "inputs": [],
      "name": "ZeroAmount",
      "type": "error"
    },
    {
      "anonymous": false,
      "inputs": [
        {
          "indexed": false,
          "internalType": "uint8",
          "name": "version",
          "type": "uint8"
        }
      ],
      "name": "Initialized",
      "type": "event"
    },
    {
      "anonymous": false,
      "inputs": [
        {
          "indexed": true,
          "internalType": "address",
          "name": "previousOwner",
          "type": "address"
        },
        {
          "indexed": true,
          "internalType": "address",
          "name": "newOwner",
          "type": "address"
        }
      ],
      "name": "OwnershipTransferStarted",
      "type": "event"
    },
    {
      "anonymous": false,
      "inputs": [
        {
          "indexed": true,
          "internalType": "address",
          "name": "previousOwner",
          "type": "address"
        },
        {
          "indexed": true,
          "internalType": "address",
          "name": "newOwner",
          "type": "address"
        }
      ],
      "name": "OwnershipTransferred",
      "type": "event"
    },
    {
      "anonymous": false,
      "inputs": [
        {
          "indexed": true,
          "internalType": "address",
          "name": "user",
          "type": "address"
        },
        {
          "indexed": true,
          "internalType": "address",
          "name": "vToken",
          "type": "address"
        },
        {
          "indexed": true,
          "internalType": "address",
          "name": "tokenIn",
          "type": "address"
        },
        {
          "indexed": false,
          "internalType": "address",
          "name": "tokenOut",
          "type": "address"
        },
        {
          "indexed": false,
          "internalType": "uint256",
          "name": "amountIn",
          "type": "uint256"
        },
        {
          "indexed": false,
          "internalType": "uint256",
          "name": "amountOut",
          "type": "uint256"
        },
        {
          "indexed": false,
          "internalType": "uint256",
          "name": "amountRepaid",
          "type": "uint256"
        }
      ],
      "name": "SwapAndRepay",
      "type": "event"
    },
    {
      "anonymous": false,
      "inputs": [
        {
          "indexed": true,
          "internalType": "address",
          "name": "user",
          "type": "address"
        },
        {
          "indexed": true,
          "internalType": "address",
          "name": "vToken",
          "type": "address"
        },
        {
          "indexed": true,
          "internalType": "address",
          "name": "tokenIn",
          "type": "address"
        },
        {
          "indexed": false,
          "internalType": "address",
          "name": "tokenOut",
          "type": "address"
        },
        {
          "indexed": false,
          "internalType": "uint256",
          "name": "amountIn",
          "type": "uint256"
        },
        {
          "indexed": false,
          "internalType": "uint256",
          "name": "amountOut",
          "type": "uint256"
        },
        {
          "indexed": false,
          "internalType": "uint256",
          "name": "amountSupplied",
          "type": "uint256"
        }
      ],
      "name": "SwapAndSupply",
      "type": "event"
    },
    {
      "anonymous": false,
      "inputs": [
        {
          "indexed": true,
          "internalType": "address",
          "name": "receiver",
          "type": "address"
        },
        {
          "indexed": false,
          "internalType": "uint256",
          "name": "amount",
          "type": "uint256"
        }
      ],
      "name": "SweepNative",
      "type": "event"
    },
    {
      "anonymous": false,
      "inputs": [
        {
          "indexed": true,
          "internalType": "address",
          "name": "token",
          "type": "address"
        },
        {
          "indexed": true,
          "internalType": "address",
          "name": "receiver",
          "type": "address"
        },
        {
          "indexed": false,
          "internalType": "uint256",
          "name": "amount",
          "type": "uint256"
        }
      ],
      "name": "SweepToken",
      "type": "event"
    },
    {
      "inputs": [],
      "name": "COMPTROLLER",
      "outputs": [
        {
          "internalType": "contract IComptroller",
          "name": "",
          "type": "address"
        }
      ],
      "stateMutability": "view",
      "type": "function"
    },
    {
      "inputs": [],
      "name": "NATIVE_TOKEN_ADDR",
      "outputs": [
        {
          "internalType": "address",
          "name": "",
          "type": "address"
        }
      ],
      "stateMutability": "view",
      "type": "function"
    },
    {
      "inputs": [],
      "name": "NATIVE_VTOKEN",
      "outputs": [
        {
          "internalType": "contract IVBNB",
          "name": "",
          "type": "address"
        }
      ],
      "stateMutability": "view",
      "type": "function"
    },
    {
      "inputs": [],
      "name": "SWAP_HELPER",
      "outputs": [
        {
          "internalType": "contract SwapHelper",
          "name": "",
          "type": "address"
        }
      ],
      "stateMutability": "view",
      "type": "function"
    },
    {
      "inputs": [],
      "name": "WRAPPED_NATIVE",
      "outputs": [
        {
          "internalType": "contract IWBNB",
          "name": "",
          "type": "address"
        }
      ],
      "stateMutability": "view",
      "type": "function"
    },
    {
      "inputs": [],
      "name": "acceptOwnership",
      "outputs": [],
      "stateMutability": "nonpayable",
      "type": "function"
    },
    {
      "inputs": [],
      "name": "initialize",
      "outputs": [],
      "stateMutability": "nonpayable",
      "type": "function"
    },
    {
      "inputs": [],
      "name": "owner",
      "outputs": [
        {
          "internalType": "address",
          "name": "",
          "type": "address"
        }
      ],
      "stateMutability": "view",
      "type": "function"
    },
    {
      "inputs": [],
      "name": "pendingOwner",
      "outputs": [
        {
          "internalType": "address",
          "name": "",
          "type": "address"
        }
      ],
      "stateMutability": "view",
      "type": "function"
    },
    {
      "inputs": [],
      "name": "renounceOwnership",
      "outputs": [],
      "stateMutability": "nonpayable",
      "type": "function"
    },
    {
      "inputs": [
        {
          "internalType": "address",
          "name": "vToken",
          "type": "address"
        },
        {
          "internalType": "address",
          "name": "tokenIn",
          "type": "address"
        },
        {
          "internalType": "uint256",
          "name": "amountIn",
          "type": "uint256"
        },
        {
          "internalType": "uint256",
          "name": "minAmountOut",
          "type": "uint256"
        },
        {
          "internalType": "bytes",
          "name": "swapCallData",
          "type": "bytes"
        }
      ],
      "name": "swapAndRepay",
      "outputs": [],
      "stateMutability": "nonpayable",
      "type": "function"
    },
    {
      "inputs": [
        {
          "internalType": "address",
          "name": "vToken",
          "type": "address"
        },
        {
          "internalType": "address",
          "name": "tokenIn",
          "type": "address"
        },
        {
          "internalType": "uint256",
          "name": "maxAmountIn",
          "type": "uint256"
        },
        {
          "internalType": "bytes",
          "name": "swapCallData",
          "type": "bytes"
        }
      ],
      "name": "swapAndRepayFull",
      "outputs": [],
      "stateMutability": "payable",
      "type": "function"
    },
    {
      "inputs": [
        {
          "internalType": "address",
          "name": "vToken",
          "type": "address"
        },
        {
          "internalType": "address",
          "name": "tokenIn",
          "type": "address"
        },
        {
          "internalType": "uint256",
          "name": "amountIn",
          "type": "uint256"
        },
        {
          "internalType": "uint256",
          "name": "minAmountOut",
          "type": "uint256"
        },
        {
          "internalType": "bytes",
          "name": "swapCallData",
          "type": "bytes"
        }
      ],
      "name": "swapAndSupply",
      "outputs": [],
      "stateMutability": "nonpayable",
      "type": "function"
    },
    {
      "inputs": [
        {
          "internalType": "address",
          "name": "vToken",
          "type": "address"
        },
        {
          "internalType": "uint256",
          "name": "minAmountOut",
          "type": "uint256"
        },
        {
          "internalType": "bytes",
          "name": "swapCallData",
          "type": "bytes"
        }
      ],
      "name": "swapNativeAndRepay",
      "outputs": [],
      "stateMutability": "payable",
      "type": "function"
    },
    {
      "inputs": [
        {
          "internalType": "address",
          "name": "vToken",
          "type": "address"
        },
        {
          "internalType": "uint256",
          "name": "minAmountOut",
          "type": "uint256"
        },
        {
          "internalType": "bytes",
          "name": "swapCallData",
          "type": "bytes"
        }
      ],
      "name": "swapNativeAndSupply",
      "outputs": [],
      "stateMutability": "payable",
      "type": "function"
    },
    {
      "inputs": [],
      "name": "sweepNative",
      "outputs": [],
      "stateMutability": "nonpayable",
      "type": "function"
    },
    {
      "inputs": [
        {
          "internalType": "contract IERC20Upgradeable",
          "name": "token",
          "type": "address"
        }
      ],
      "name": "sweepToken",
      "outputs": [],
      "stateMutability": "nonpayable",
      "type": "function"
    },
    {
      "inputs": [
        {
          "internalType": "address",
          "name": "newOwner",
          "type": "address"
        }
      ],
      "name": "transferOwnership",
      "outputs": [],
      "stateMutability": "nonpayable",
      "type": "function"
    },
    {
      "stateMutability": "payable",
      "type": "receive"
    }
  ],
  "transactionHash": "0xdfb0d8835401b2b440cc3fe346d2753edd52f11a4b2fc2c9a04104742c57d378",
  "args": [
    "0xfD36E2c2a6789Db23113685031d7F16329158384",
    "0xD79be25aEe798Aa34A9Ba1230003d7499be29A24",
    "0xbb4CdB9CBd36B01bD1cBaEBF2De08d9173bc095c",
    "0xA07c5b74C9B40447a954e1466938b865b6BBea36"
  ],
  "numDeployments": 1,
  "solcInputHash": "25d258d1218c1095977d00042a4857f4",
  "bytecode": "0x610100604052348015610010575f5ffd5b5060405161257238038061257283398101604081905261002f916101ce565b6001600160a01b0384166100565760405163d92e233d60e01b815260040160405180910390fd5b6001600160a01b03831661007d5760405163d92e233d60e01b815260040160405180910390fd5b6001600160a01b0382166100a45760405163d92e233d60e01b815260040160405180910390fd5b6001600160a01b0381166100cb5760405163d92e233d60e01b815260040160405180910390fd5b6001600160a01b0380851660805283811660a05282811660c052811660e0526100f26100fb565b5050505061022a565b5f54610100900460ff16156101665760405162461bcd60e51b815260206004820152602760248201527f496e697469616c697a61626c653a20636f6e747261637420697320696e697469604482015266616c697a696e6760c81b606482015260840160405180910390fd5b5f5460ff908116146101b5575f805460ff191660ff9081179091556040519081527f7f26b83ff96e1f2b6a682f133852f6798a09c465da95921460cefb38474024989060200160405180910390a15b565b6001600160a01b03811681146101cb575f5ffd5b50565b5f5f5f5f608085870312156101e1575f5ffd5b84516101ec816101b7565b60208601519094506101fd816101b7565b604086015190935061020e816101b7565b606086015190925061021f816101b7565b939692955090935050565b60805160a05160c05160e0516122a56102cd5f395f8181610353015281816110de015281816115d00152818161165e015261189501525f818161011801528181610320015281816107e0015281816108540152818161088f01528181610d3a01528181610dae01528181610de90152818161111801526111ef01525f8181610193015281816113ca015261145c01525f8181610227015261104301526122a55ff3fe608060405260043610610108575f3560e01c80638da5cb5b11610092578063c7c9914311610062578063c7c99143146102fc578063d999984d1461030f578063dc26ea2114610342578063e30c397814610375578063f2fde38b14610392575f5ffd5b80638da5cb5b1461028557806395b42430146102a2578063a9534f8a146102c1578063ab803a76146102e8575f5ffd5b80635030daf2116100d85780635030daf2146102035780635f82c67e14610216578063715018a61461024957806379ba50971461025d5780638129fc1c14610271575f5ffd5b80631be19560146101635780634401258c146101825780634719dfed146101d15780634c1dc7e5146101f0575f5ffd5b3661015f57336001600160a01b037f0000000000000000000000000000000000000000000000000000000000000000161461015d5760405163aa4611c960e01b81523360048201526024015b60405180910390fd5b005b5f5ffd5b34801561016e575f5ffd5b5061015d61017d366004611f54565b6103b1565b34801561018d575f5ffd5b506101b57f000000000000000000000000000000000000000000000000000000000000000081565b6040516001600160a01b03909116815260200160405180910390f35b3480156101dc575f5ffd5b5061015d6101eb366004611fb4565b6104ac565b61015d6101fe36600461202b565b610586565b61015d610211366004612099565b610716565b348015610221575f5ffd5b506101b57f000000000000000000000000000000000000000000000000000000000000000081565b348015610254575f5ffd5b5061015d61091c565b348015610268575f5ffd5b5061015d61092f565b34801561027c575f5ffd5b5061015d6109a9565b348015610290575f5ffd5b506033546001600160a01b03166101b5565b3480156102ad575f5ffd5b5061015d6102bc366004611fb4565b610abb565b3480156102cc575f5ffd5b506101b573bbbbbbbbbbbbbbbbbbbbbbbbbbbbbbbbbbbbbbbb81565b3480156102f3575f5ffd5b5061015d610c19565b61015d61030a366004612099565b610cfb565b34801561031a575f5ffd5b506101b57f000000000000000000000000000000000000000000000000000000000000000081565b34801561034d575f5ffd5b506101b57f000000000000000000000000000000000000000000000000000000000000000081565b348015610380575f5ffd5b506065546001600160a01b03166101b5565b34801561039d575f5ffd5b5061015d6103ac366004611f54565b610e6f565b6103b9610ee0565b6040516370a0823160e01b81523060048201525f906001600160a01b038316906370a0823190602401602060405180830381865afa1580156103fd573d5f5f3e3d5ffd5b505050506040513d601f19601f8201168201806040525081019061042191906120f1565b905080156104a85761044f61043e6033546001600160a01b031690565b6001600160a01b0384169083610f3a565b6033546001600160a01b03166001600160a01b0316826001600160a01b03167f6d25be279134f4ecaa4770aff0c3d916d9e7c5ef37b65ed95dbdba411f5d54d58360405161049f91815260200190565b60405180910390a35b5050565b6104b4610fa2565b835f036104d457604051631f2a200560e01b815260040160405180910390fd5b6104dd86610ffb565b5f6104e7876110db565b90505f6104f487876111a7565b90505f610505888484898989611364565b90505f6105138a85846115cd565b9050886001600160a01b03168a6001600160a01b0316336001600160a01b03167f7334d83c41b79b2c10193c91ba7d060b0d91a4846ee64002b1c1f8d3471a7bd9878787876040516105689493929190612108565b60405180910390a45050505061057e6001609755565b505050505050565b61058e610fa2565b825f036105ae57604051631f2a200560e01b815260040160405180910390fd5b6105b785610ffb565b6040516305eff7ef60e21b81523360048201525f906001600160a01b038716906317bfdfbc906024016020604051808303815f875af11580156105fc573d5f5f3e3d5ffd5b505050506040513d601f19601f8201168201806040525081019061062091906120f1565b9050805f0361064257604051631f2a200560e01b815260040160405180910390fd5b5f61064c876110db565b90505f61065987876111a7565b90505f61066a8884845f8a8a611364565b9050838110156106975760405163126c3c7360e21b81526004810182905260248101859052604401610154565b5f6106a38a8584611814565b9050886001600160a01b03168a6001600160a01b0316336001600160a01b03167fdc93b8bc8518ff29aa9ed946dc1471649cc385bb939daf1602c6af2a9ce4c36b878787876040516106f89493929190612108565b60405180910390a4505050505061070f6001609755565b5050505050565b61071e610fa2565b345f0361073e57604051631f2a200560e01b815260040160405180910390fd5b61074784610ffb565b6040516305eff7ef60e21b81523360048201525f906001600160a01b038616906317bfdfbc906024016020604051808303815f875af115801561078c573d5f5f3e3d5ffd5b505050506040513d601f19601f820116820180604052508101906107b091906120f1565b9050805f036107d257604051631f2a200560e01b815260040160405180910390fd5b5f6107dc866110db565b90507f00000000000000000000000000000000000000000000000000000000000000006001600160a01b031663d0e30db0346040518263ffffffff1660e01b81526004015f604051808303818588803b158015610837575f5ffd5b505af1158015610849573d5f5f3e3d5ffd5b50505050505f61087d7f00000000000000000000000000000000000000000000000000000000000000008334898989611364565b90505f61088b888484611814565b90507f00000000000000000000000000000000000000000000000000000000000000006001600160a01b0316886001600160a01b0316336001600160a01b03167fdc93b8bc8518ff29aa9ed946dc1471649cc385bb939daf1602c6af2a9ce4c36b863487876040516109009493929190612108565b60405180910390a4505050506109166001609755565b50505050565b610924610ee0565b61092d5f611a61565b565b60655433906001600160a01b0316811461099d5760405162461bcd60e51b815260206004820152602960248201527f4f776e61626c6532537465703a2063616c6c6572206973206e6f7420746865206044820152683732bb9037bbb732b960b91b6064820152608401610154565b6109a681611a61565b50565b5f54610100900460ff16158080156109c757505f54600160ff909116105b806109e05750303b1580156109e057505f5460ff166001145b610a435760405162461bcd60e51b815260206004820152602e60248201527f496e697469616c697a61626c653a20636f6e747261637420697320616c72656160448201526d191e481a5b9a5d1a585b1a5e995960921b6064820152608401610154565b5f805460ff191660011790558015610a64575f805461ff0019166101001790555b610a6c611a7a565b610a74611aa8565b80156109a6575f805461ff0019169055604051600181527f7f26b83ff96e1f2b6a682f133852f6798a09c465da95921460cefb38474024989060200160405180910390a150565b610ac3610fa2565b835f03610ae357604051631f2a200560e01b815260040160405180910390fd5b610aec86610ffb565b6040516305eff7ef60e21b81523360048201525f906001600160a01b038816906317bfdfbc906024016020604051808303815f875af1158015610b31573d5f5f3e3d5ffd5b505050506040513d601f19601f82011682018060405250810190610b5591906120f1565b9050805f03610b7757604051631f2a200560e01b815260040160405180910390fd5b5f610b81886110db565b90505f610b8e88886111a7565b90505f610b9f8984848a8a8a611364565b90505f610bad8b8584611814565b9050896001600160a01b03168b6001600160a01b0316336001600160a01b03167fdc93b8bc8518ff29aa9ed946dc1471649cc385bb939daf1602c6af2a9ce4c36b87878787604051610c029493929190612108565b60405180910390a4505050505061057e6001609755565b610c21610ee0565b4780156109a6575f610c3b6033546001600160a01b031690565b6001600160a01b0316826040515f6040518083038185875af1925050503d805f8114610c82576040519150601f19603f3d011682016040523d82523d5f602084013e610c87565b606091505b5050905080610ca957604051633d2cec6f60e21b815260040160405180910390fd5b6033546001600160a01b03166001600160a01b03167f0a1dd7c5bdc40ecbdefc1bfda22f1dfb98c8fc3e3940aab73ad7fba37720d0a083604051610cef91815260200190565b60405180910390a25050565b610d03610fa2565b345f03610d2357604051631f2a200560e01b815260040160405180910390fd5b610d2c84610ffb565b5f610d36856110db565b90507f00000000000000000000000000000000000000000000000000000000000000006001600160a01b031663d0e30db0346040518263ffffffff1660e01b81526004015f604051808303818588803b158015610d91575f5ffd5b505af1158015610da3573d5f5f3e3d5ffd5b50505050505f610dd77f00000000000000000000000000000000000000000000000000000000000000008334888888611364565b90505f610de58784846115cd565b90507f00000000000000000000000000000000000000000000000000000000000000006001600160a01b0316876001600160a01b0316336001600160a01b03167f7334d83c41b79b2c10193c91ba7d060b0d91a4846ee64002b1c1f8d3471a7bd986348787604051610e5a9493929190612108565b60405180910390a45050506109166001609755565b610e77610ee0565b606580546001600160a01b0383166001600160a01b03199091168117909155610ea86033546001600160a01b031690565b6001600160a01b03167f38d16b8cac22d99fc7c124b9cd0de2d3fa1faef420bfe791d8c362d765e2270060405160405180910390a350565b6033546001600160a01b0316331461092d5760405162461bcd60e51b815260206004820181905260248201527f4f776e61626c653a2063616c6c6572206973206e6f7420746865206f776e65726044820152606401610154565b6040516001600160a01b038316602482015260448101829052610f9d90849063a9059cbb60e01b906064015b60408051601f198184030181529190526020810180516001600160e01b03166001600160e01b031990931692909217909152611ad6565b505050565b600260975403610ff45760405162461bcd60e51b815260206004820152601f60248201527f5265656e7472616e637947756172643a207265656e7472616e742063616c6c006044820152606401610154565b6002609755565b6001600160a01b0381166110225760405163d92e233d60e01b815260040160405180910390fd5b604051638e8f294b60e01b81526001600160a01b0382811660048301525f917f000000000000000000000000000000000000000000000000000000000000000090911690638e8f294b90602401606060405180830381865afa15801561108a573d5f5f3e3d5ffd5b505050506040513d601f19601f820116820180604052508101906110ae919061213d565b50509050806104a857604051635a9a1eb960e11b81526001600160a01b0383166004820152602401610154565b5f7f00000000000000000000000000000000000000000000000000000000000000006001600160a01b0316826001600160a01b03160361113c57507f0000000000000000000000000000000000000000000000000000000000000000919050565b816001600160a01b0316636f307dc36040518163ffffffff1660e01b8152600401602060405180830381865afa158015611178573d5f5f3e3d5ffd5b505050506040513d601f19601f8201168201806040525081019061119c9190612177565b92915050565b919050565b5f73bbbbbbbbbbbbbbbbbbbbbbbbbbbbbbbbbbbbbbba196001600160a01b03841601611265578134146111ed57604051631e9acf1760e31b815260040160405180910390fd5b7f00000000000000000000000000000000000000000000000000000000000000006001600160a01b031663d0e30db0346040518263ffffffff1660e01b81526004015f604051808303818588803b158015611246575f5ffd5b505af1158015611258573d5f5f3e3d5ffd5b505050505034905061119c565b6040516370a0823160e01b815230600482015283905f906001600160a01b038316906370a0823190602401602060405180830381865afa1580156112ab573d5f5f3e3d5ffd5b505050506040513d601f19601f820116820180604052508101906112cf91906120f1565b90506112e66001600160a01b038316333087611ba9565b6040516370a0823160e01b81523060048201525f906001600160a01b038416906370a0823190602401602060405180830381865afa15801561132a573d5f5f3e3d5ffd5b505050506040513d601f19601f8201168201806040525081019061134e91906120f1565b905061135a8282612192565b9695505050505050565b5f856001600160a01b0316876001600160a01b0316036113bb575f8411801561138c57508385105b156113b45760405163126c3c7360e21b81526004810186905260248101859052604401610154565b508361135a565b6113ef6001600160a01b0388167f000000000000000000000000000000000000000000000000000000000000000087610f3a565b6040516370a0823160e01b81523060048201525f906001600160a01b038816906370a0823190602401602060405180830381865afa158015611433573d5f5f3e3d5ffd5b505050506040513d601f19601f8201168201806040525081019061145791906120f1565b90505f7f00000000000000000000000000000000000000000000000000000000000000006001600160a01b031685856040516114949291906121b1565b5f604051808303815f865af19150503d805f81146114cd576040519150601f19603f3d011682016040523d82523d5f602084013e6114d2565b606091505b50509050806114f45760405163081ceff360e41b815260040160405180910390fd5b6040516370a0823160e01b81523060048201525f906001600160a01b038a16906370a0823190602401602060405180830381865afa158015611538573d5f5f3e3d5ffd5b505050506040513d601f19601f8201168201806040525081019061155c91906120f1565b90506115688382612192565b9350835f0361158a57604051639671a89f60e01b815260040160405180910390fd5b5f8711801561159857508684105b156115c05760405163126c3c7360e21b81526004810185905260248101889052604401610154565b5050509695505050505050565b5f7f00000000000000000000000000000000000000000000000000000000000000006001600160a01b0316846001600160a01b03160361175957604051632e1a7d4d60e01b8152600481018390526001600160a01b03841690632e1a7d4d906024015f604051808303815f87803b158015611646575f5ffd5b505af1158015611658573d5f5f3e3d5ffd5b505050507f00000000000000000000000000000000000000000000000000000000000000006001600160a01b0316631249c58b836040518263ffffffff1660e01b81526004015f604051808303818588803b1580156116b5575f5ffd5b505af11580156116c7573d5f5f3e3d5ffd5b50506040516370a0823160e01b81523060048201528594505f93506001600160a01b03881692506370a082319150602401602060405180830381865afa158015611713573d5f5f3e3d5ffd5b505050506040513d601f19601f8201168201806040525081019061173791906120f1565b90508015611753576117536001600160a01b0386163383610f3a565b50611806565b61176d6001600160a01b0384168584611be1565b6040516323323e0360e01b8152336004820152602481018390525f906001600160a01b038616906323323e03906044016020604051808303815f875af11580156117b9573d5f5f3e3d5ffd5b505050506040513d601f19601f820116820180604052508101906117dd91906120f1565b905080156118015760405163093a784b60e31b815260048101829052602401610154565b829150505b9392505050565b6001609755565b6040516305eff7ef60e21b81523360048201525f9081906001600160a01b038616906317bfdfbc906024016020604051808303815f875af115801561185b573d5f5f3e3d5ffd5b505050506040513d601f19601f8201168201806040525081019061187f91906120f1565b90505f81841161188f5783611891565b815b90507f00000000000000000000000000000000000000000000000000000000000000006001600160a01b0316866001600160a01b03160361198057604051632e1a7d4d60e01b8152600481018290526001600160a01b03861690632e1a7d4d906024015f604051808303815f87803b15801561190b575f5ffd5b505af115801561191d573d5f5f3e3d5ffd5b505060405163e597461960e01b81523360048201526001600160a01b038916925063e5974619915083906024015f604051808303818588803b158015611961575f5ffd5b505af1158015611973573d5f5f3e3d5ffd5b5050505050809250611a2d565b6119946001600160a01b0386168783611be1565b6040516304c11f0360e31b8152336004820152602481018290525f906001600160a01b03881690632608f818906044016020604051808303815f875af11580156119e0573d5f5f3e3d5ffd5b505050506040513d601f19601f82011682018060405250810190611a0491906120f1565b90508015611a28576040516305e4427960e11b815260048101829052602401610154565b819350505b80841115611a58575f611a408286612192565b9050611a566001600160a01b0387163383610f3a565b505b50509392505050565b606580546001600160a01b03191690556109a681611c6f565b5f54610100900460ff16611aa05760405162461bcd60e51b8152600401610154906121c0565b61092d611cc0565b5f54610100900460ff16611ace5760405162461bcd60e51b8152600401610154906121c0565b61092d611cef565b5f611b2a826040518060400160405280602081526020017f5361666545524332303a206c6f772d6c6576656c2063616c6c206661696c6564815250856001600160a01b0316611d159092919063ffffffff16565b905080515f1480611b4a575080806020019051810190611b4a919061220b565b610f9d5760405162461bcd60e51b815260206004820152602a60248201527f5361666545524332303a204552433230206f7065726174696f6e20646964206e6044820152691bdd081cdd58d8d9595960b21b6064820152608401610154565b6040516001600160a01b03808516602483015283166044820152606481018290526109169085906323b872dd60e01b90608401610f66565b604080516001600160a01b038416602482015260448082018490528251808303909101815260649091019091526020810180516001600160e01b031663095ea7b360e01b179052611c328482611d2b565b610916576040516001600160a01b03841660248201525f6044820152611c6590859063095ea7b360e01b90606401610f66565b6109168482611ad6565b603380546001600160a01b038381166001600160a01b0319831681179093556040519116919082907f8be0079c531659141344cd1fd0a4f28419497f9722a3daafe3b4186f6b6457e0905f90a35050565b5f54610100900460ff16611ce65760405162461bcd60e51b8152600401610154906121c0565b61092d33611a61565b5f54610100900460ff1661180d5760405162461bcd60e51b8152600401610154906121c0565b6060611d2384845f85611dcc565b949350505050565b5f5f5f846001600160a01b031684604051611d469190612224565b5f604051808303815f865af19150503d805f8114611d7f576040519150601f19603f3d011682016040523d82523d5f602084013e611d84565b606091505b5091509150818015611dae575080511580611dae575080806020019051810190611dae919061220b565b8015611dc357506001600160a01b0385163b15155b95945050505050565b606082471015611e2d5760405162461bcd60e51b815260206004820152602660248201527f416464726573733a20696e73756666696369656e742062616c616e636520666f6044820152651c8818d85b1b60d21b6064820152608401610154565b5f5f866001600160a01b03168587604051611e489190612224565b5f6040518083038185875af1925050503d805f8114611e82576040519150601f19603f3d011682016040523d82523d5f602084013e611e87565b606091505b5091509150611e9887838387611ea3565b979650505050505050565b60608315611f115782515f03611f0a576001600160a01b0385163b611f0a5760405162461bcd60e51b815260206004820152601d60248201527f416464726573733a2063616c6c20746f206e6f6e2d636f6e74726163740000006044820152606401610154565b5081611d23565b611d238383815115611f265781518083602001fd5b8060405162461bcd60e51b8152600401610154919061223a565b6001600160a01b03811681146109a6575f5ffd5b5f60208284031215611f64575f5ffd5b813561180681611f40565b5f5f83601f840112611f7f575f5ffd5b50813567ffffffffffffffff811115611f96575f5ffd5b602083019150836020828501011115611fad575f5ffd5b9250929050565b5f5f5f5f5f5f60a08789031215611fc9575f5ffd5b8635611fd481611f40565b95506020870135611fe481611f40565b94506040870135935060608701359250608087013567ffffffffffffffff81111561200d575f5ffd5b61201989828a01611f6f565b979a9699509497509295939492505050565b5f5f5f5f5f6080868803121561203f575f5ffd5b853561204a81611f40565b9450602086013561205a81611f40565b935060408601359250606086013567ffffffffffffffff81111561207c575f5ffd5b61208888828901611f6f565b969995985093965092949392505050565b5f5f5f5f606085870312156120ac575f5ffd5b84356120b781611f40565b935060208501359250604085013567ffffffffffffffff8111156120d9575f5ffd5b6120e587828801611f6f565b95989497509550505050565b5f60208284031215612101575f5ffd5b5051919050565b6001600160a01b0394909416845260208401929092526040830152606082015260800190565b805180151581146111a2575f5ffd5b5f5f5f6060848603121561214f575f5ffd5b6121588461212e565b6020850151909350915061216e6040850161212e565b90509250925092565b5f60208284031215612187575f5ffd5b815161180681611f40565b8181038181111561119c57634e487b7160e01b5f52601160045260245ffd5b818382375f9101908152919050565b6020808252602b908201527f496e697469616c697a61626c653a20636f6e7472616374206973206e6f74206960408201526a6e697469616c697a696e6760a81b606082015260800190565b5f6020828403121561221b575f5ffd5b6118068261212e565b5f82518060208501845e5f920191825250919050565b602081525f82518060208401528060208501604085015e5f604082850101526040601f19601f8301168401019150509291505056fea2646970667358221220512c01d49806dce4633428e11b670967ec7de540bb37812279395dc9da81352e64736f6c634300081c0033",
  "devdoc": {
    "author": "Venus Protocol",
    "custom:security-contact": "https://github.com/VenusProtocol/venus-periphery",
    "details": "This contract allows users to:      - Supply funds to Venus markets using different assets (swap-and-supply)      - Repay debts using different assets (swap-and-repay)      Compatible with immutable vBNB market.",
    "errors": {
      "InsufficientAmountOut(uint256,uint256)": [
        {
          "custom:error": "Thrown when slippage protection fails"
        }
      ],
      "InsufficientBalance()": [
        {
          "custom:error": "Thrown when insufficient user balance"
        }
      ],
      "MarketNotListed(address)": [
        {
          "custom:error": "Thrown when market is not listed in comptroller"
        }
      ],
      "NativeTransferFailed()": [
        {
          "custom:error": "Thrown when native token transfer fails"
        }
      ],
      "NoTokensReceived()": [
        {
          "custom:error": "Thrown when no tokens are received from swap"
        }
      ],
      "RepayFailed(uint256)": [
        {
          "custom:error": "Thrown when repay operation fails"
        }
      ],
      "SupplyFailed(uint256)": [
        {
          "custom:error": "Thrown when supply operation fails"
        }
      ],
      "SwapFailed()": [
        {
          "custom:error": "Thrown when swap operation fails"
        }
      ],
      "UnauthorizedNativeSender(address)": [
        {
          "custom:error": "Thrown when unauthorized sender tries to send native tokens"
        }
      ],
      "ZeroAddress()": [
        {
          "custom:error": "Thrown when a zero address is provided"
        }
      ],
      "ZeroAmount()": [
        {
          "custom:error": "Thrown when zero amount is provided"
        }
      ]
    },
    "events": {
      "Initialized(uint8)": {
        "details": "Triggered when the contract has been initialized or reinitialized."
      }
    },
    "kind": "dev",
    "methods": {
      "acceptOwnership()": {
        "details": "The new owner accepts the ownership transfer."
      },
      "constructor": {
        "custom:oz-upgrades-unsafe-allow": "constructor",
        "params": {
          "_comptroller": "The address of the Venus Comptroller contract",
          "_nativeVToken": "The address of the native vToken (e.g., vBNB)",
          "_swapHelper": "The address of the SwapHelper contract",
          "_wrappedNative": "The address of the wrapped native token (e.g., WBNB)"
        }
      },
      "owner()": {
        "details": "Returns the address of the current owner."
      },
      "pendingOwner()": {
        "details": "Returns the address of the pending owner."
      },
      "renounceOwnership()": {
        "details": "Leaves the contract without owner. It will not be possible to call `onlyOwner` functions. Can only be called by the current owner. NOTE: Renouncing ownership will leave the contract without an owner, thereby disabling any functionality that is only available to the owner."
      },
      "swapAndRepay(address,address,uint256,uint256,bytes)": {
        "custom:event": "Emits SwapAndRepay event",
        "params": {
          "amountIn": "The amount of input tokens to swap",
          "minAmountOut": "The minimum amount of output tokens expected",
          "swapCallData": "Array of bytes containing swap instructions",
          "tokenIn": "The input token to swap from",
          "vToken": "The vToken market to repay debt to"
        }
      },
      "swapAndRepayFull(address,address,uint256,bytes)": {
        "custom:event": "Emits SwapAndRepay event",
        "params": {
          "maxAmountIn": "The maximum amount of input tokens to use",
          "swapCallData": "Array of bytes containing swap instructions",
          "tokenIn": "The input token to swap from",
          "vToken": "The vToken market to repay full debt to"
        }
      },
      "swapAndSupply(address,address,uint256,uint256,bytes)": {
        "custom:event": "Emits SwapAndSupply event",
        "params": {
          "amountIn": "The amount of input tokens to swap",
          "minAmountOut": "The minimum amount of output tokens expected",
          "swapCallData": "Array of bytes containing swap instructions",
          "tokenIn": "The input token to swap from",
          "vToken": "The vToken market to supply to"
        }
      },
      "swapNativeAndRepay(address,uint256,bytes)": {
        "custom:event": "Emits SwapAndRepay event",
        "params": {
          "minAmountOut": "The minimum amount of output tokens expected",
          "swapCallData": "Array of bytes containing swap instructions",
          "vToken": "The vToken market to repay debt to"
        }
      },
      "swapNativeAndSupply(address,uint256,bytes)": {
        "custom:event": "Emits SwapAndSupply event",
        "params": {
          "minAmountOut": "The minimum amount of output tokens expected",
          "swapCallData": "Array of bytes containing swap instructions",
          "vToken": "The vToken market to supply to"
        }
      },
      "sweepNative()": {
        "custom:event": "Emits SweepNative event"
      },
      "sweepToken(address)": {
        "custom:event": "Emits SweepToken event",
        "params": {
          "token": "The token to sweep"
        }
      },
      "transferOwnership(address)": {
        "details": "Starts the ownership transfer of the contract to a new account. Replaces the pending transfer if there is one. Can only be called by the current owner."
      }
    },
    "title": "SwapRouter",
    "version": 1
  },
  "userdoc": {
    "events": {
      "SwapAndRepay(address,address,address,address,uint256,uint256,uint256)": {
        "notice": "Emitted when tokens are swapped and used to repay debt"
      },
      "SwapAndSupply(address,address,address,address,uint256,uint256,uint256)": {
        "notice": "Emitted when tokens are swapped and supplied to a Venus market"
      },
      "SweepNative(address,uint256)": {
        "notice": "Emitted when leftover native tokens are swept by owner"
      },
      "SweepToken(address,address,uint256)": {
        "notice": "Emitted when leftover ERC-20 tokens are swept by owner"
      }
    },
    "kind": "user",
    "methods": {
      "COMPTROLLER()": {
        "notice": "The Venus comptroller contract for market validation and operations"
      },
      "NATIVE_TOKEN_ADDR()": {
        "notice": "Address representing native token (BNB)"
      },
      "NATIVE_VTOKEN()": {
        "notice": "The native vToken address (e.g., vBNB)"
      },
      "SWAP_HELPER()": {
        "notice": "The swap helper contract for executing token swaps"
      },
      "WRAPPED_NATIVE()": {
        "notice": "The wrapped native token contract (e.g., WBNB)"
      },
      "constructor": {
        "notice": "Constructor to set immutable variables"
      },
      "initialize()": {
        "notice": "Initializes the contract, setting up the upgradeable components"
      },
      "swapAndRepay(address,address,uint256,uint256,bytes)": {
        "notice": "Swaps tokens and repays debt to a Venus market"
      },
      "swapAndRepayFull(address,address,uint256,bytes)": {
        "notice": "Swaps tokens and repays the full debt for a user"
      },
      "swapAndSupply(address,address,uint256,uint256,bytes)": {
        "notice": "Swaps tokens and supplies the result to a Venus market"
      },
      "swapNativeAndRepay(address,uint256,bytes)": {
        "notice": "Swaps native tokens and repays debt to a Venus market"
      },
      "swapNativeAndSupply(address,uint256,bytes)": {
        "notice": "Swaps native tokens (BNB) and supplies to a Venus market"
      },
      "sweepNative()": {
        "notice": "Sweeps leftover native tokens from the contract"
      },
      "sweepToken(address)": {
        "notice": "Sweeps leftover ERC-20 tokens from the contract"
      }
    },
    "notice": "A contract for swap features: swap-and-supply and swap-and-repay operations",
    "version": 1
  },
  "storageLayout": {
    "storage": [
      {
        "astId": 246,
        "contract": "contracts/SwapRouter/SwapRouter.sol:SwapRouter",
        "label": "_initialized",
        "offset": 0,
        "slot": "0",
        "type": "t_uint8"
      },
      {
        "astId": 249,
        "contract": "contracts/SwapRouter/SwapRouter.sol:SwapRouter",
        "label": "_initializing",
        "offset": 1,
        "slot": "0",
        "type": "t_bool"
      },
      {
        "astId": 1363,
        "contract": "contracts/SwapRouter/SwapRouter.sol:SwapRouter",
        "label": "__gap",
        "offset": 0,
        "slot": "1",
        "type": "t_array(t_uint256)50_storage"
      },
      {
        "astId": 118,
        "contract": "contracts/SwapRouter/SwapRouter.sol:SwapRouter",
        "label": "_owner",
        "offset": 0,
        "slot": "51",
        "type": "t_address"
      },
      {
        "astId": 238,
        "contract": "contracts/SwapRouter/SwapRouter.sol:SwapRouter",
        "label": "__gap",
        "offset": 0,
        "slot": "52",
        "type": "t_array(t_uint256)49_storage"
      },
      {
        "astId": 11,
        "contract": "contracts/SwapRouter/SwapRouter.sol:SwapRouter",
        "label": "_pendingOwner",
        "offset": 0,
        "slot": "101",
        "type": "t_address"
      },
      {
        "astId": 105,
        "contract": "contracts/SwapRouter/SwapRouter.sol:SwapRouter",
        "label": "__gap",
        "offset": 0,
        "slot": "102",
        "type": "t_array(t_uint256)49_storage"
      },
      {
        "astId": 423,
        "contract": "contracts/SwapRouter/SwapRouter.sol:SwapRouter",
        "label": "_status",
        "offset": 0,
        "slot": "151",
        "type": "t_uint256"
      },
      {
        "astId": 492,
        "contract": "contracts/SwapRouter/SwapRouter.sol:SwapRouter",
        "label": "__gap",
        "offset": 0,
        "slot": "152",
        "type": "t_array(t_uint256)49_storage"
      }
    ],
    "types": {
      "t_address": {
        "encoding": "inplace",
        "label": "address",
        "numberOfBytes": "20"
      },
      "t_array(t_uint256)49_storage": {
        "base": "t_uint256",
        "encoding": "inplace",
        "label": "uint256[49]",
        "numberOfBytes": "1568"
      },
      "t_array(t_uint256)50_storage": {
        "base": "t_uint256",
        "encoding": "inplace",
        "label": "uint256[50]",
        "numberOfBytes": "1600"
      },
      "t_bool": {
        "encoding": "inplace",
        "label": "bool",
        "numberOfBytes": "1"
      },
      "t_uint256": {
        "encoding": "inplace",
        "label": "uint256",
        "numberOfBytes": "32"
      },
      "t_uint8": {
        "encoding": "inplace",
        "label": "uint8",
        "numberOfBytes": "1"
      }
    }
  }
}