{
  "address": "0xd0c5c6d4d1A00C80D9E50B84F0DD5f57B6f23047",
  "abi": [
    {
      "inputs": [
        {
          "internalType": "contract ResilientOracleInterface",
          "name": "resilientOracle_",
          "type": "address"
        }
      ],
      "stateMutability": "nonpayable",
      "type": "constructor"
    },
    {
      "inputs": [],
      "name": "InvalidPool",
      "type": "error"
    },
    {
      "inputs": [],
      "name": "PriceCalculationError",
      "type": "error"
    },
    {
      "inputs": [],
      "name": "TokenNotConfigured",
      "type": "error"
    },
    {
      "inputs": [
        {
          "internalType": "address",
          "name": "sender",
          "type": "address"
        },
        {
          "internalType": "address",
          "name": "calledContract",
          "type": "address"
        },
        {
          "internalType": "string",
          "name": "methodSignature",
          "type": "string"
        }
      ],
      "name": "Unauthorized",
      "type": "error"
    },
    {
      "inputs": [],
      "name": "ZeroAddress",
      "type": "error"
    },
    {
      "anonymous": false,
      "inputs": [
        {
          "indexed": false,
          "internalType": "uint8",
          "name": "version",
          "type": "uint8"
        }
      ],
      "name": "Initialized",
      "type": "event"
    },
    {
      "anonymous": false,
      "inputs": [
        {
          "indexed": false,
          "internalType": "address",
          "name": "oldAccessControlManager",
          "type": "address"
        },
        {
          "indexed": false,
          "internalType": "address",
          "name": "newAccessControlManager",
          "type": "address"
        }
      ],
      "name": "NewAccessControlManager",
      "type": "event"
    },
    {
      "anonymous": false,
      "inputs": [
        {
          "indexed": true,
          "internalType": "address",
          "name": "previousOwner",
          "type": "address"
        },
        {
          "indexed": true,
          "internalType": "address",
          "name": "newOwner",
          "type": "address"
        }
      ],
      "name": "OwnershipTransferStarted",
      "type": "event"
    },
    {
      "anonymous": false,
      "inputs": [
        {
          "indexed": true,
          "internalType": "address",
          "name": "previousOwner",
          "type": "address"
        },
        {
          "indexed": true,
          "internalType": "address",
          "name": "newOwner",
          "type": "address"
        }
      ],
      "name": "OwnershipTransferred",
      "type": "event"
    },
    {
      "anonymous": false,
      "inputs": [
        {
          "indexed": true,
          "internalType": "address",
          "name": "token",
          "type": "address"
        },
        {
          "indexed": true,
          "internalType": "address",
          "name": "pool",
          "type": "address"
        }
      ],
      "name": "PoolConfigUpdated",
      "type": "event"
    },
    {
      "inputs": [],
      "name": "RESILIENT_ORACLE",
      "outputs": [
        {
          "internalType": "contract ResilientOracleInterface",
          "name": "",
          "type": "address"
        }
      ],
      "stateMutability": "view",
      "type": "function"
    },
    {
      "inputs": [],
      "name": "acceptOwnership",
      "outputs": [],
      "stateMutability": "nonpayable",
      "type": "function"
    },
    {
      "inputs": [],
      "name": "accessControlManager",
      "outputs": [
        {
          "internalType": "contract IAccessControlManagerV8",
          "name": "",
          "type": "address"
        }
      ],
      "stateMutability": "view",
      "type": "function"
    },
    {
      "inputs": [
        {
          "internalType": "address",
          "name": "asset",
          "type": "address"
        }
      ],
      "name": "getPrice",
      "outputs": [
        {
          "internalType": "uint256",
          "name": "price",
          "type": "uint256"
        }
      ],
      "stateMutability": "view",
      "type": "function"
    },
    {
      "inputs": [
        {
          "internalType": "address",
          "name": "accessControlManager_",
          "type": "address"
        }
      ],
      "name": "initialize",
      "outputs": [],
      "stateMutability": "nonpayable",
      "type": "function"
    },
    {
      "inputs": [],
      "name": "owner",
      "outputs": [
        {
          "internalType": "address",
          "name": "",
          "type": "address"
        }
      ],
      "stateMutability": "view",
      "type": "function"
    },
    {
      "inputs": [],
      "name": "pendingOwner",
      "outputs": [
        {
          "internalType": "address",
          "name": "",
          "type": "address"
        }
      ],
      "stateMutability": "view",
      "type": "function"
    },
    {
      "inputs": [],
      "name": "renounceOwnership",
      "outputs": [],
      "stateMutability": "nonpayable",
      "type": "function"
    },
    {
      "inputs": [
        {
          "internalType": "address",
          "name": "accessControlManager_",
          "type": "address"
        }
      ],
      "name": "setAccessControlManager",
      "outputs": [],
      "stateMutability": "nonpayable",
      "type": "function"
    },
    {
      "inputs": [
        {
          "internalType": "address",
          "name": "token",
          "type": "address"
        },
        {
          "internalType": "address",
          "name": "pool",
          "type": "address"
        }
      ],
      "name": "setPoolConfig",
      "outputs": [],
      "stateMutability": "nonpayable",
      "type": "function"
    },
    {
      "inputs": [
        {
          "internalType": "address",
          "name": "",
          "type": "address"
        }
      ],
      "name": "tokenPools",
      "outputs": [
        {
          "internalType": "address",
          "name": "",
          "type": "address"
        }
      ],
      "stateMutability": "view",
      "type": "function"
    },
    {
      "inputs": [
        {
          "internalType": "address",
          "name": "newOwner",
          "type": "address"
        }
      ],
      "name": "transferOwnership",
      "outputs": [],
      "stateMutability": "nonpayable",
      "type": "function"
    }
  ],
  "transactionHash": "0x766237fd145a567f41d7e868ab02ef9b03c1a0dcc92620372fe61e06a367f836",
  "args": [
    "0x3cD69251D04A28d887Ac14cbe2E14c52F3D57823"
  ],
  "numDeployments": 1,
  "solcInputHash": "b20fb442042b9e1394d141b06569189a",
  "bytecode": "0x60a060405234801561000f575f80fd5b5060405161130838038061130883398101604081905261002e91610105565b6001600160a01b038116608052610043610049565b50610132565b5f54610100900460ff16156100b45760405162461bcd60e51b815260206004820152602760248201527f496e697469616c697a61626c653a20636f6e747261637420697320696e697469604482015266616c697a696e6760c81b606482015260840160405180910390fd5b5f5460ff90811614610103575f805460ff191660ff9081179091556040519081527f7f26b83ff96e1f2b6a682f133852f6798a09c465da95921460cefb38474024989060200160405180910390a15b565b5f60208284031215610115575f80fd5b81516001600160a01b038116811461012b575f80fd5b9392505050565b6080516111b76101515f395f818161013d01526108c801526111b75ff3fe608060405234801561000f575f80fd5b50600436106100b1575f3560e01c8063a4edcd4c1161006e578063a4edcd4c14610138578063b4a0bdf31461015f578063c3d2c3c114610170578063c4d66de814610198578063e30c3978146101ab578063f2fde38b146101bc575f80fd5b80630e32cb86146100b55780631936b278146100ca57806341976e09146100dd578063715018a61461010357806379ba50971461010b5780638da5cb5b14610113575b5f80fd5b6100c86100c3366004610db4565b6101cf565b005b6100c86100d8366004610dcf565b6101e3565b6100f06100eb366004610db4565b6102c5565b6040519081526020015b60405180910390f35b6100c8610310565b6100c8610323565b6033546001600160a01b03165b6040516001600160a01b0390911681526020016100fa565b6101207f000000000000000000000000000000000000000000000000000000000000000081565b6097546001600160a01b0316610120565b61012061017e366004610db4565b60c96020525f90815260409020546001600160a01b031681565b6100c86101a6366004610db4565b61039f565b6065546001600160a01b0316610120565b6100c86101ca366004610db4565b6104ad565b6101d761051e565b6101e081610578565b50565b6102216040518060400160405280601e81526020017f736574506f6f6c436f6e66696728616464726573732c61646472657373290000815250610636565b6001600160a01b0382166102485760405163d92e233d60e01b815260040160405180910390fd5b6001600160a01b03811661026f5760405163d92e233d60e01b815260040160405180910390fd5b6001600160a01b038281165f81815260c9602052604080822080546001600160a01b0319169486169485179055517fed7692d7eac8e25ca74b0bcb7b52fe51d01a8910e8e320c6f3223365708d76de9190a35050565b6001600160a01b038082165f90815260c96020526040812054909116806102ff57604051631d8730d160e31b815260040160405180910390fd5b61030981846106cd565b9392505050565b61031861051e565b6103215f610b0d565b565b60655433906001600160a01b031681146103965760405162461bcd60e51b815260206004820152602960248201527f4f776e61626c6532537465703a2063616c6c6572206973206e6f7420746865206044820152683732bb9037bbb732b960b91b60648201526084015b60405180910390fd5b6101e081610b0d565b5f54610100900460ff16158080156103bd57505f54600160ff909116105b806103d65750303b1580156103d657505f5460ff166001145b6104395760405162461bcd60e51b815260206004820152602e60248201527f496e697469616c697a61626c653a20636f6e747261637420697320616c72656160448201526d191e481a5b9a5d1a585b1a5e995960921b606482015260840161038d565b5f805460ff19166001179055801561045a575f805461ff0019166101001790555b61046382610b26565b80156104a9575f805461ff0019169055604051600181527f7f26b83ff96e1f2b6a682f133852f6798a09c465da95921460cefb3847402498906020015b60405180910390a15b5050565b6104b561051e565b606580546001600160a01b0383166001600160a01b031990911681179091556104e66033546001600160a01b031690565b6001600160a01b03167f38d16b8cac22d99fc7c124b9cd0de2d3fa1faef420bfe791d8c362d765e2270060405160405180910390a350565b6033546001600160a01b031633146103215760405162461bcd60e51b815260206004820181905260248201527f4f776e61626c653a2063616c6c6572206973206e6f7420746865206f776e6572604482015260640161038d565b6001600160a01b0381166105dc5760405162461bcd60e51b815260206004820152602560248201527f696e76616c696420616365737320636f6e74726f6c206d616e61676572206164604482015264647265737360d81b606482015260840161038d565b609780546001600160a01b038381166001600160a01b031983168117909355604080519190921680825260208201939093527f66fd58e82f7b31a2a5c30e0888f3093efe4e111b00cd2b0c31fe014601293aa091016104a0565b6097546040516318c5e8ab60e01b81525f916001600160a01b0316906318c5e8ab906106689033908690600401610e34565b602060405180830381865afa158015610683573d5f803e3d5ffd5b505050506040513d601f19601f820116820180604052508101906106a79190610e73565b9050806104a957333083604051634a3fa29360e01b815260040161038d93929190610e8c565b5f6001600160a01b0383166106f45760405162820f3560e61b815260040160405180910390fd5b5f8390505f816001600160a01b0316630dfe16816040518163ffffffff1660e01b8152600401602060405180830381865afa158015610735573d5f803e3d5ffd5b505050506040513d601f19601f820116820180604052508101906107599190610ec0565b90505f826001600160a01b031663d21220a76040518163ffffffff1660e01b8152600401602060405180830381865afa158015610798573d5f803e3d5ffd5b505050506040513d601f19601f820116820180604052508101906107bc9190610ec0565b90505f836001600160a01b0316633850c7bd6040518163ffffffff1660e01b815260040160e060405180830381865afa1580156107fb573d5f803e3d5ffd5b505050506040513d601f19601f8201168201806040525081019061081f9190610eec565b50505050505090505f610849826001600160a01b0316836001600160a01b0316600160601b610b5d565b9050865f806001600160a01b038088169084160361086c575084905060016108a7565b856001600160a01b03168a6001600160a01b03160361088f57508590505f6108a7565b60405162820f3560e61b815260040160405180910390fd5b6040516341976e0960e01b81526001600160a01b0383811660048301525f917f0000000000000000000000000000000000000000000000000000000000000000909116906341976e0990602401602060405180830381865afa15801561090f573d5f803e3d5ffd5b505050506040513d601f19601f820116820180604052508101906109339190610f82565b90505f846001600160a01b031663313ce5676040518163ffffffff1660e01b8152600401602060405180830381865afa158015610972573d5f803e3d5ffd5b505050506040513d601f19601f820116820180604052508101906109969190610f99565b90505f846001600160a01b031663313ce5676040518163ffffffff1660e01b8152600401602060405180830381865afa1580156109d5573d5f803e3d5ffd5b505050506040513d601f19601f820116820180604052508101906109f99190610f99565b90505f610a07836024610fcd565b90505f8515610a3857610a31610a29600160601b670de0b6b3a7640000610fec565b60018b610b5d565b9050610a5c565b610a59610a4d8a670de0b6b3a7640000610fec565b6001600160601b610b5d565b90505b610a97610a6a85600a6110e3565b610a749087610fec565b670de0b6b3a7640000610a8886600a6110e3565b610a929085610fec565b610b5d565b9d508160ff16601214610afa5760128260ff161115610ad757610abb601283610fcd565b610ac690600a6110e3565b610ad0908f610fec565b9d50610afa565b610ae2826012610fcd565b610aed90600a6110e3565b610af7908f6110f1565b9d505b5050505050505050505050505092915050565b606580546001600160a01b03191690556101e081610ccc565b5f54610100900460ff16610b4c5760405162461bcd60e51b815260040161038d90611110565b610b54610d1d565b6101e081610d4b565b5f80805f19858709858702925082811083820303915050805f03610b91575f8411610b86575f80fd5b508290049050610309565b808411610b9c575f80fd5b5f848688098084039381119092039190505f610bba8619600161115b565b8616958690049593849004935f819003046001019050610bda8184610fec565b909317925f610bea876003610fec565b6002189050610bf98188610fec565b610c0490600261116e565b610c0e9082610fec565b9050610c1a8188610fec565b610c2590600261116e565b610c2f9082610fec565b9050610c3b8188610fec565b610c4690600261116e565b610c509082610fec565b9050610c5c8188610fec565b610c6790600261116e565b610c719082610fec565b9050610c7d8188610fec565b610c8890600261116e565b610c929082610fec565b9050610c9e8188610fec565b610ca990600261116e565b610cb39082610fec565b9050610cbf8186610fec565b9998505050505050505050565b603380546001600160a01b038381166001600160a01b0319831681179093556040519116919082907f8be0079c531659141344cd1fd0a4f28419497f9722a3daafe3b4186f6b6457e0905f90a35050565b5f54610100900460ff16610d435760405162461bcd60e51b815260040161038d90611110565b610321610d71565b5f54610100900460ff166101d75760405162461bcd60e51b815260040161038d90611110565b5f54610100900460ff16610d975760405162461bcd60e51b815260040161038d90611110565b61032133610b0d565b6001600160a01b03811681146101e0575f80fd5b5f60208284031215610dc4575f80fd5b813561030981610da0565b5f8060408385031215610de0575f80fd5b8235610deb81610da0565b91506020830135610dfb81610da0565b809150509250929050565b5f81518084528060208401602086015e5f602082860101526020601f19601f83011685010191505092915050565b6001600160a01b03831681526040602082018190525f90610e5790830184610e06565b949350505050565b80518015158114610e6e575f80fd5b919050565b5f60208284031215610e83575f80fd5b61030982610e5f565b6001600160a01b038481168252831660208201526060604082018190525f90610eb790830184610e06565b95945050505050565b5f60208284031215610ed0575f80fd5b815161030981610da0565b805161ffff81168114610e6e575f80fd5b5f805f805f805f60e0888a031215610f02575f80fd5b8751610f0d81610da0565b8097505060208801518060020b8114610f24575f80fd5b9550610f3260408901610edb565b9450610f4060608901610edb565b9350610f4e60808901610edb565b925060a088015163ffffffff81168114610f66575f80fd5b9150610f7460c08901610e5f565b905092959891949750929550565b5f60208284031215610f92575f80fd5b5051919050565b5f60208284031215610fa9575f80fd5b815160ff81168114610309575f80fd5b634e487b7160e01b5f52601160045260245ffd5b60ff8281168282160390811115610fe657610fe6610fb9565b92915050565b8082028115828204841417610fe657610fe6610fb9565b600181815b8085111561103d57815f190482111561102357611023610fb9565b8085161561103057918102915b93841c9390800290611008565b509250929050565b5f8261105357506001610fe6565b8161105f57505f610fe6565b8160018114611075576002811461107f5761109b565b6001915050610fe6565b60ff84111561109057611090610fb9565b50506001821b610fe6565b5060208310610133831016604e8410600b84101617156110be575081810a610fe6565b6110c88383611003565b805f19048211156110db576110db610fb9565b029392505050565b5f61030960ff841683611045565b5f8261110b57634e487b7160e01b5f52601260045260245ffd5b500490565b6020808252602b908201527f496e697469616c697a61626c653a20636f6e7472616374206973206e6f74206960408201526a6e697469616c697a696e6760a81b606082015260800190565b80820180821115610fe657610fe6610fb9565b81810381811115610fe657610fe6610fb956fea2646970667358221220d20ba3f8cb8613de13fee742e2e474d2412994f8c50f95f259e48424d381a70764736f6c63430008190033",
  "devdoc": {
    "author": "Venus",
    "events": {
      "Initialized(uint8)": {
        "details": "Triggered when the contract has been initialized or reinitialized."
      },
      "PoolConfigUpdated(address,address)": {
        "params": {
          "pool": "The pool address",
          "token": "The token address"
        }
      }
    },
    "kind": "dev",
    "methods": {
      "acceptOwnership()": {
        "details": "The new owner accepts the ownership transfer."
      },
      "constructor": {
        "params": {
          "resilientOracle_": "Address of the resilient oracle"
        }
      },
      "getPrice(address)": {
        "custom:error": "TokenNotConfigured is thrown when asset has no pool configured",
        "params": {
          "asset": "Address of the asset"
        },
        "returns": {
          "price": "Price in (36 - asset decimals) format, same as ResilientOracle"
        }
      },
      "initialize(address)": {
        "params": {
          "accessControlManager_": "Address of the access control manager"
        }
      },
      "owner()": {
        "details": "Returns the address of the current owner."
      },
      "pendingOwner()": {
        "details": "Returns the address of the pending owner."
      },
      "renounceOwnership()": {
        "details": "Leaves the contract without owner. It will not be possible to call `onlyOwner` functions. Can only be called by the current owner. NOTE: Renouncing ownership will leave the contract without an owner, thereby disabling any functionality that is only available to the owner."
      },
      "setAccessControlManager(address)": {
        "custom:access": "Only Governance",
        "custom:event": "Emits NewAccessControlManager event",
        "details": "Admin function to set address of AccessControlManager",
        "params": {
          "accessControlManager_": "The new address of the AccessControlManager"
        }
      },
      "setPoolConfig(address,address)": {
        "custom:error": "ZeroAddress is thrown when token or pool address is zero",
        "custom:event": "Emits PoolConfigUpdated event",
        "params": {
          "pool": "Address of the PancakeSwap V3 pool",
          "token": "Address of the token"
        }
      },
      "transferOwnership(address)": {
        "details": "Starts the ownership transfer of the contract to a new account. Replaces the pending transfer if there is one. Can only be called by the current owner."
      }
    },
    "stateVariables": {
      "RESILIENT_ORACLE": {
        "custom:oz-upgrades-unsafe-allow": "state-variable-immutable"
      }
    },
    "title": "PancakeSwapOracle",
    "version": 1
  },
  "userdoc": {
    "errors": {
      "InvalidPool()": [
        {
          "notice": "Thrown when an invalid pool address is provided"
        }
      ],
      "PriceCalculationError()": [
        {
          "notice": "Thrown when price calculation fails"
        }
      ],
      "TokenNotConfigured()": [
        {
          "notice": "Thrown when token is not configured"
        }
      ],
      "Unauthorized(address,address,string)": [
        {
          "notice": "Thrown when the action is prohibited by AccessControlManager"
        }
      ],
      "ZeroAddress()": [
        {
          "notice": "Thrown when a zero address is provided"
        }
      ]
    },
    "events": {
      "NewAccessControlManager(address,address)": {
        "notice": "Emitted when access control manager contract address is changed"
      },
      "PoolConfigUpdated(address,address)": {
        "notice": "Emitted when a token's pool configuration is updated"
      }
    },
    "kind": "user",
    "methods": {
      "RESILIENT_ORACLE()": {
        "notice": "Resilient Oracle for getting reference token prices"
      },
      "accessControlManager()": {
        "notice": "Returns the address of the access control manager contract"
      },
      "constructor": {
        "notice": "Constructor for PancakeSwapPriceOracle"
      },
      "getPrice(address)": {
        "notice": "Get the price of an asset from PancakeSwap V3"
      },
      "initialize(address)": {
        "notice": "Initialize the contract"
      },
      "setAccessControlManager(address)": {
        "notice": "Sets the address of AccessControlManager"
      },
      "setPoolConfig(address,address)": {
        "notice": "Set pool configuration for a token"
      },
      "tokenPools(address)": {
        "notice": "Mapping of token addresses to their pool addresses"
      }
    },
    "notice": "Oracle contract for fetching asset prices from PancakeSwap V3",
    "version": 1
  },
  "storageLayout": {
    "storage": [
      {
        "astId": 246,
        "contract": "contracts/Oracles/PancakeSwapOracle.sol:PancakeSwapOracle",
        "label": "_initialized",
        "offset": 0,
        "slot": "0",
        "type": "t_uint8"
      },
      {
        "astId": 249,
        "contract": "contracts/Oracles/PancakeSwapOracle.sol:PancakeSwapOracle",
        "label": "_initializing",
        "offset": 1,
        "slot": "0",
        "type": "t_bool"
      },
      {
        "astId": 866,
        "contract": "contracts/Oracles/PancakeSwapOracle.sol:PancakeSwapOracle",
        "label": "__gap",
        "offset": 0,
        "slot": "1",
        "type": "t_array(t_uint256)50_storage"
      },
      {
        "astId": 118,
        "contract": "contracts/Oracles/PancakeSwapOracle.sol:PancakeSwapOracle",
        "label": "_owner",
        "offset": 0,
        "slot": "51",
        "type": "t_address"
      },
      {
        "astId": 238,
        "contract": "contracts/Oracles/PancakeSwapOracle.sol:PancakeSwapOracle",
        "label": "__gap",
        "offset": 0,
        "slot": "52",
        "type": "t_array(t_uint256)49_storage"
      },
      {
        "astId": 11,
        "contract": "contracts/Oracles/PancakeSwapOracle.sol:PancakeSwapOracle",
        "label": "_pendingOwner",
        "offset": 0,
        "slot": "101",
        "type": "t_address"
      },
      {
        "astId": 105,
        "contract": "contracts/Oracles/PancakeSwapOracle.sol:PancakeSwapOracle",
        "label": "__gap",
        "offset": 0,
        "slot": "102",
        "type": "t_array(t_uint256)49_storage"
      },
      {
        "astId": 1057,
        "contract": "contracts/Oracles/PancakeSwapOracle.sol:PancakeSwapOracle",
        "label": "_accessControlManager",
        "offset": 0,
        "slot": "151",
        "type": "t_contract(IAccessControlManagerV8)1242"
      },
      {
        "astId": 1062,
        "contract": "contracts/Oracles/PancakeSwapOracle.sol:PancakeSwapOracle",
        "label": "__gap",
        "offset": 0,
        "slot": "152",
        "type": "t_array(t_uint256)49_storage"
      },
      {
        "astId": 3071,
        "contract": "contracts/Oracles/PancakeSwapOracle.sol:PancakeSwapOracle",
        "label": "tokenPools",
        "offset": 0,
        "slot": "201",
        "type": "t_mapping(t_address,t_address)"
      }
    ],
    "types": {
      "t_address": {
        "encoding": "inplace",
        "label": "address",
        "numberOfBytes": "20"
      },
      "t_array(t_uint256)49_storage": {
        "base": "t_uint256",
        "encoding": "inplace",
        "label": "uint256[49]",
        "numberOfBytes": "1568"
      },
      "t_array(t_uint256)50_storage": {
        "base": "t_uint256",
        "encoding": "inplace",
        "label": "uint256[50]",
        "numberOfBytes": "1600"
      },
      "t_bool": {
        "encoding": "inplace",
        "label": "bool",
        "numberOfBytes": "1"
      },
      "t_contract(IAccessControlManagerV8)1242": {
        "encoding": "inplace",
        "label": "contract IAccessControlManagerV8",
        "numberOfBytes": "20"
      },
      "t_mapping(t_address,t_address)": {
        "encoding": "mapping",
        "key": "t_address",
        "label": "mapping(address => address)",
        "numberOfBytes": "32",
        "value": "t_address"
      },
      "t_uint256": {
        "encoding": "inplace",
        "label": "uint256",
        "numberOfBytes": "32"
      },
      "t_uint8": {
        "encoding": "inplace",
        "label": "uint8",
        "numberOfBytes": "1"
      }
    }
  }
}