{
  "address": "0x1AAADE04A970043756D90e11af57e03A3A10E2c4",
  "abi": [
    {
      "inputs": [],
      "stateMutability": "nonpayable",
      "type": "constructor"
    },
    {
      "inputs": [],
      "name": "TokenNotConfigured",
      "type": "error"
    },
    {
      "inputs": [
        {
          "internalType": "address",
          "name": "sender",
          "type": "address"
        },
        {
          "internalType": "address",
          "name": "calledContract",
          "type": "address"
        },
        {
          "internalType": "string",
          "name": "methodSignature",
          "type": "string"
        }
      ],
      "name": "Unauthorized",
      "type": "error"
    },
    {
      "inputs": [],
      "name": "ZeroAddress",
      "type": "error"
    },
    {
      "anonymous": false,
      "inputs": [
        {
          "indexed": false,
          "internalType": "uint8",
          "name": "version",
          "type": "uint8"
        }
      ],
      "name": "Initialized",
      "type": "event"
    },
    {
      "anonymous": false,
      "inputs": [
        {
          "indexed": false,
          "internalType": "address",
          "name": "oldAccessControlManager",
          "type": "address"
        },
        {
          "indexed": false,
          "internalType": "address",
          "name": "newAccessControlManager",
          "type": "address"
        }
      ],
      "name": "NewAccessControlManager",
      "type": "event"
    },
    {
      "anonymous": false,
      "inputs": [
        {
          "indexed": true,
          "internalType": "address",
          "name": "previousOwner",
          "type": "address"
        },
        {
          "indexed": true,
          "internalType": "address",
          "name": "newOwner",
          "type": "address"
        }
      ],
      "name": "OwnershipTransferStarted",
      "type": "event"
    },
    {
      "anonymous": false,
      "inputs": [
        {
          "indexed": true,
          "internalType": "address",
          "name": "previousOwner",
          "type": "address"
        },
        {
          "indexed": true,
          "internalType": "address",
          "name": "newOwner",
          "type": "address"
        }
      ],
      "name": "OwnershipTransferred",
      "type": "event"
    },
    {
      "anonymous": false,
      "inputs": [
        {
          "indexed": true,
          "internalType": "address",
          "name": "token",
          "type": "address"
        },
        {
          "indexed": true,
          "internalType": "address",
          "name": "oracle",
          "type": "address"
        }
      ],
      "name": "TokenOracleConfigUpdated",
      "type": "event"
    },
    {
      "inputs": [],
      "name": "acceptOwnership",
      "outputs": [],
      "stateMutability": "nonpayable",
      "type": "function"
    },
    {
      "inputs": [],
      "name": "accessControlManager",
      "outputs": [
        {
          "internalType": "contract IAccessControlManagerV8",
          "name": "",
          "type": "address"
        }
      ],
      "stateMutability": "view",
      "type": "function"
    },
    {
      "inputs": [
        {
          "internalType": "address",
          "name": "asset",
          "type": "address"
        }
      ],
      "name": "getPrice",
      "outputs": [
        {
          "internalType": "uint256",
          "name": "price",
          "type": "uint256"
        }
      ],
      "stateMutability": "view",
      "type": "function"
    },
    {
      "inputs": [
        {
          "internalType": "address",
          "name": "accessControlManager_",
          "type": "address"
        }
      ],
      "name": "initialize",
      "outputs": [],
      "stateMutability": "nonpayable",
      "type": "function"
    },
    {
      "inputs": [],
      "name": "owner",
      "outputs": [
        {
          "internalType": "address",
          "name": "",
          "type": "address"
        }
      ],
      "stateMutability": "view",
      "type": "function"
    },
    {
      "inputs": [],
      "name": "pendingOwner",
      "outputs": [
        {
          "internalType": "address",
          "name": "",
          "type": "address"
        }
      ],
      "stateMutability": "view",
      "type": "function"
    },
    {
      "inputs": [],
      "name": "renounceOwnership",
      "outputs": [],
      "stateMutability": "nonpayable",
      "type": "function"
    },
    {
      "inputs": [
        {
          "internalType": "address",
          "name": "accessControlManager_",
          "type": "address"
        }
      ],
      "name": "setAccessControlManager",
      "outputs": [],
      "stateMutability": "nonpayable",
      "type": "function"
    },
    {
      "inputs": [
        {
          "internalType": "address",
          "name": "token",
          "type": "address"
        },
        {
          "internalType": "address",
          "name": "oracle",
          "type": "address"
        }
      ],
      "name": "setTokenOracleConfig",
      "outputs": [],
      "stateMutability": "nonpayable",
      "type": "function"
    },
    {
      "inputs": [
        {
          "internalType": "address",
          "name": "",
          "type": "address"
        }
      ],
      "name": "tokenConfigs",
      "outputs": [
        {
          "internalType": "address",
          "name": "oracle",
          "type": "address"
        }
      ],
      "stateMutability": "view",
      "type": "function"
    },
    {
      "inputs": [
        {
          "internalType": "address",
          "name": "newOwner",
          "type": "address"
        }
      ],
      "name": "transferOwnership",
      "outputs": [],
      "stateMutability": "nonpayable",
      "type": "function"
    }
  ],
  "transactionHash": "0xd776e8ad5d649fb4805e8888b47d05de3501b0119e3ccc309a8660de882acd62",
  "args": [],
  "numDeployments": 1,
  "solcInputHash": "b20fb442042b9e1394d141b06569189a",
  "bytecode": "0x6080604052348015600e575f80fd5b5060156019565b60d3565b5f54610100900460ff161560835760405162461bcd60e51b815260206004820152602760248201527f496e697469616c697a61626c653a20636f6e747261637420697320696e697469604482015266616c697a696e6760c81b606482015260840160405180910390fd5b5f5460ff9081161460d1575f805460ff191660ff9081179091556040519081527f7f26b83ff96e1f2b6a682f133852f6798a09c465da95921460cefb38474024989060200160405180910390a15b565b6109fb806100e05f395ff3fe608060405234801561000f575f80fd5b50600436106100a6575f3560e01c80638da5cb5b1161006e5780638da5cb5b14610135578063b4a0bdf314610146578063c4d66de814610157578063e30c39781461016a578063f2fde38b1461017b578063fa42c5941461018e575f80fd5b80630e32cb86146100aa5780631b69dc5f146100bf57806341976e0914610104578063715018a61461012557806379ba50971461012d575b5f80fd5b6100bd6100b8366004610848565b6101a1565b005b6100e76100cd366004610848565b60c96020525f90815260409020546001600160a01b031681565b6040516001600160a01b0390911681526020015b60405180910390f35b610117610112366004610848565b6101b5565b6040519081526020016100fb565b6100bd610271565b6100bd610284565b6033546001600160a01b03166100e7565b6097546001600160a01b03166100e7565b6100bd610165366004610848565b610300565b6065546001600160a01b03166100e7565b6100bd610189366004610848565b61040e565b6100bd61019c366004610861565b61047f565b6101a961055a565b6101b2816105b4565b50565b6001600160a01b038082165f90815260c9602090815260408083208151928301909152549092168083529091906101ff57604051631d8730d160e31b815260040160405180910390fd5b80516040516341976e0960e01b81526001600160a01b038581166004830152909116906341976e0990602401602060405180830381865afa158015610246573d5f803e3d5ffd5b505050506040513d601f19601f8201168201806040525081019061026a9190610892565b9392505050565b61027961055a565b6102825f610672565b565b60655433906001600160a01b031681146102f75760405162461bcd60e51b815260206004820152602960248201527f4f776e61626c6532537465703a2063616c6c6572206973206e6f7420746865206044820152683732bb9037bbb732b960b91b60648201526084015b60405180910390fd5b6101b281610672565b5f54610100900460ff161580801561031e57505f54600160ff909116105b806103375750303b15801561033757505f5460ff166001145b61039a5760405162461bcd60e51b815260206004820152602e60248201527f496e697469616c697a61626c653a20636f6e747261637420697320616c72656160448201526d191e481a5b9a5d1a585b1a5e995960921b60648201526084016102ee565b5f805460ff1916600117905580156103bb575f805461ff0019166101001790555b6103c48261068b565b801561040a575f805461ff0019169055604051600181527f7f26b83ff96e1f2b6a682f133852f6798a09c465da95921460cefb3847402498906020015b60405180910390a15b5050565b61041661055a565b606580546001600160a01b0383166001600160a01b031990911681179091556104476033546001600160a01b031690565b6001600160a01b03167f38d16b8cac22d99fc7c124b9cd0de2d3fa1faef420bfe791d8c362d765e2270060405160405180910390a350565b6104a06040518060600160405280602581526020016109a1602591396106c2565b6001600160a01b0382166104c75760405163d92e233d60e01b815260040160405180910390fd5b6001600160a01b0381166104ee5760405163d92e233d60e01b815260040160405180910390fd5b60408051602080820183526001600160a01b038481168084528682165f81815260c9909452858420945185546001600160a01b03191693169290921790935592519192917f33653a570c53dca923b1c3c0bd84d830d58b2a42156faa77ecbb1bd5313729959190a35050565b6033546001600160a01b031633146102825760405162461bcd60e51b815260206004820181905260248201527f4f776e61626c653a2063616c6c6572206973206e6f7420746865206f776e657260448201526064016102ee565b6001600160a01b0381166106185760405162461bcd60e51b815260206004820152602560248201527f696e76616c696420616365737320636f6e74726f6c206d616e61676572206164604482015264647265737360d81b60648201526084016102ee565b609780546001600160a01b038381166001600160a01b031983168117909355604080519190921680825260208201939093527f66fd58e82f7b31a2a5c30e0888f3093efe4e111b00cd2b0c31fe014601293aa09101610401565b606580546001600160a01b03191690556101b281610759565b5f54610100900460ff166106b15760405162461bcd60e51b81526004016102ee906108a9565b6106b96107aa565b6101b2816107d8565b6097546040516318c5e8ab60e01b81525f916001600160a01b0316906318c5e8ab906106f49033908690600401610922565b602060405180830381865afa15801561070f573d5f803e3d5ffd5b505050506040513d601f19601f82011682018060405250810190610733919061094d565b90508061040a57333083604051634a3fa29360e01b81526004016102ee9392919061096c565b603380546001600160a01b038381166001600160a01b0319831681179093556040519116919082907f8be0079c531659141344cd1fd0a4f28419497f9722a3daafe3b4186f6b6457e0905f90a35050565b5f54610100900460ff166107d05760405162461bcd60e51b81526004016102ee906108a9565b6102826107fe565b5f54610100900460ff166101a95760405162461bcd60e51b81526004016102ee906108a9565b5f54610100900460ff166108245760405162461bcd60e51b81526004016102ee906108a9565b61028233610672565b80356001600160a01b0381168114610843575f80fd5b919050565b5f60208284031215610858575f80fd5b61026a8261082d565b5f8060408385031215610872575f80fd5b61087b8361082d565b91506108896020840161082d565b90509250929050565b5f602082840312156108a2575f80fd5b5051919050565b6020808252602b908201527f496e697469616c697a61626c653a20636f6e7472616374206973206e6f74206960408201526a6e697469616c697a696e6760a81b606082015260800190565b5f81518084528060208401602086015e5f602082860101526020601f19601f83011685010191505092915050565b6001600160a01b03831681526040602082018190525f90610945908301846108f4565b949350505050565b5f6020828403121561095d575f80fd5b8151801515811461026a575f80fd5b6001600160a01b038481168252831660208201526060604082018190525f90610997908301846108f4565b9594505050505056fe736574546f6b656e4f7261636c65436f6e66696728616464726573732c6164647265737329a26469706673582212201bd325427d32e24e700a9b9bb232f8bf10fb097ed9ea1af99f7ad6678fd787bc64736f6c63430008190033",
  "devdoc": {
    "author": "Venus",
    "events": {
      "Initialized(uint8)": {
        "details": "Triggered when the contract has been initialized or reinitialized."
      },
      "TokenOracleConfigUpdated(address,address)": {
        "params": {
          "oracle": "The oracle address",
          "token": "The token address"
        }
      }
    },
    "kind": "dev",
    "methods": {
      "acceptOwnership()": {
        "details": "The new owner accepts the ownership transfer."
      },
      "getPrice(address)": {
        "custom:error": "TokenNotConfigured is thrown when asset has no oracle configured",
        "params": {
          "asset": "Address of the asset"
        },
        "returns": {
          "price": "Price in (36 - asset decimals) format, same as ResilientOracle"
        }
      },
      "initialize(address)": {
        "params": {
          "accessControlManager_": "Address of the access control manager"
        }
      },
      "owner()": {
        "details": "Returns the address of the current owner."
      },
      "pendingOwner()": {
        "details": "Returns the address of the pending owner."
      },
      "renounceOwnership()": {
        "details": "Leaves the contract without owner. It will not be possible to call `onlyOwner` functions. Can only be called by the current owner. NOTE: Renouncing ownership will leave the contract without an owner, thereby disabling any functionality that is only available to the owner."
      },
      "setAccessControlManager(address)": {
        "custom:access": "Only Governance",
        "custom:event": "Emits NewAccessControlManager event",
        "details": "Admin function to set address of AccessControlManager",
        "params": {
          "accessControlManager_": "The new address of the AccessControlManager"
        }
      },
      "setTokenOracleConfig(address,address)": {
        "custom:error": "ZeroAddress is thrown when token or oracle address is zero",
        "custom:event": "Emits TokenOracleConfigUpdated event",
        "params": {
          "oracle": "Address of the DEX oracle to use",
          "token": "Address of the token"
        }
      },
      "transferOwnership(address)": {
        "details": "Starts the ownership transfer of the contract to a new account. Replaces the pending transfer if there is one. Can only be called by the current owner."
      }
    },
    "title": "SentinelOracle",
    "version": 1
  },
  "userdoc": {
    "errors": {
      "TokenNotConfigured()": [
        {
          "notice": "Thrown when token is not configured"
        }
      ],
      "Unauthorized(address,address,string)": [
        {
          "notice": "Thrown when the action is prohibited by AccessControlManager"
        }
      ],
      "ZeroAddress()": [
        {
          "notice": "Thrown when a zero address is provided"
        }
      ]
    },
    "events": {
      "NewAccessControlManager(address,address)": {
        "notice": "Emitted when access control manager contract address is changed"
      },
      "TokenOracleConfigUpdated(address,address)": {
        "notice": "Emitted when a token's oracle configuration is updated"
      }
    },
    "kind": "user",
    "methods": {
      "accessControlManager()": {
        "notice": "Returns the address of the access control manager contract"
      },
      "constructor": {
        "notice": "Constructor for PriceSentinelOracle"
      },
      "getPrice(address)": {
        "notice": "Get the price of an asset from the configured DEX oracle"
      },
      "initialize(address)": {
        "notice": "Initialize the contract"
      },
      "setAccessControlManager(address)": {
        "notice": "Sets the address of AccessControlManager"
      },
      "setTokenOracleConfig(address,address)": {
        "notice": "Set oracle configuration for a token"
      },
      "tokenConfigs(address)": {
        "notice": "Mapping of token addresses to their oracle configuration"
      }
    },
    "notice": "Aggregator oracle that routes price requests to appropriate DEX oracles",
    "version": 1
  },
  "storageLayout": {
    "storage": [
      {
        "astId": 246,
        "contract": "contracts/Oracles/SentinelOracle.sol:SentinelOracle",
        "label": "_initialized",
        "offset": 0,
        "slot": "0",
        "type": "t_uint8"
      },
      {
        "astId": 249,
        "contract": "contracts/Oracles/SentinelOracle.sol:SentinelOracle",
        "label": "_initializing",
        "offset": 1,
        "slot": "0",
        "type": "t_bool"
      },
      {
        "astId": 866,
        "contract": "contracts/Oracles/SentinelOracle.sol:SentinelOracle",
        "label": "__gap",
        "offset": 0,
        "slot": "1",
        "type": "t_array(t_uint256)50_storage"
      },
      {
        "astId": 118,
        "contract": "contracts/Oracles/SentinelOracle.sol:SentinelOracle",
        "label": "_owner",
        "offset": 0,
        "slot": "51",
        "type": "t_address"
      },
      {
        "astId": 238,
        "contract": "contracts/Oracles/SentinelOracle.sol:SentinelOracle",
        "label": "__gap",
        "offset": 0,
        "slot": "52",
        "type": "t_array(t_uint256)49_storage"
      },
      {
        "astId": 11,
        "contract": "contracts/Oracles/SentinelOracle.sol:SentinelOracle",
        "label": "_pendingOwner",
        "offset": 0,
        "slot": "101",
        "type": "t_address"
      },
      {
        "astId": 105,
        "contract": "contracts/Oracles/SentinelOracle.sol:SentinelOracle",
        "label": "__gap",
        "offset": 0,
        "slot": "102",
        "type": "t_array(t_uint256)49_storage"
      },
      {
        "astId": 1057,
        "contract": "contracts/Oracles/SentinelOracle.sol:SentinelOracle",
        "label": "_accessControlManager",
        "offset": 0,
        "slot": "151",
        "type": "t_contract(IAccessControlManagerV8)1242"
      },
      {
        "astId": 1062,
        "contract": "contracts/Oracles/SentinelOracle.sol:SentinelOracle",
        "label": "__gap",
        "offset": 0,
        "slot": "152",
        "type": "t_array(t_uint256)49_storage"
      },
      {
        "astId": 3431,
        "contract": "contracts/Oracles/SentinelOracle.sol:SentinelOracle",
        "label": "tokenConfigs",
        "offset": 0,
        "slot": "201",
        "type": "t_mapping(t_address,t_struct(TokenConfig)3425_storage)"
      }
    ],
    "types": {
      "t_address": {
        "encoding": "inplace",
        "label": "address",
        "numberOfBytes": "20"
      },
      "t_array(t_uint256)49_storage": {
        "base": "t_uint256",
        "encoding": "inplace",
        "label": "uint256[49]",
        "numberOfBytes": "1568"
      },
      "t_array(t_uint256)50_storage": {
        "base": "t_uint256",
        "encoding": "inplace",
        "label": "uint256[50]",
        "numberOfBytes": "1600"
      },
      "t_bool": {
        "encoding": "inplace",
        "label": "bool",
        "numberOfBytes": "1"
      },
      "t_contract(IAccessControlManagerV8)1242": {
        "encoding": "inplace",
        "label": "contract IAccessControlManagerV8",
        "numberOfBytes": "20"
      },
      "t_mapping(t_address,t_struct(TokenConfig)3425_storage)": {
        "encoding": "mapping",
        "key": "t_address",
        "label": "mapping(address => struct SentinelOracle.TokenConfig)",
        "numberOfBytes": "32",
        "value": "t_struct(TokenConfig)3425_storage"
      },
      "t_struct(TokenConfig)3425_storage": {
        "encoding": "inplace",
        "label": "struct SentinelOracle.TokenConfig",
        "members": [
          {
            "astId": 3424,
            "contract": "contracts/Oracles/SentinelOracle.sol:SentinelOracle",
            "label": "oracle",
            "offset": 0,
            "slot": "0",
            "type": "t_address"
          }
        ],
        "numberOfBytes": "32"
      },
      "t_uint256": {
        "encoding": "inplace",
        "label": "uint256",
        "numberOfBytes": "32"
      },
      "t_uint8": {
        "encoding": "inplace",
        "label": "uint8",
        "numberOfBytes": "1"
      }
    }
  }
}